{
  "_format": "hh-sol-artifact-1",
  "contractName": "Escrow",
  "sourceName": "contracts/Escrow.sol",
  "abi": [
    {
      "inputs": [
        {
          "internalType": "address",
          "name": "_freelancer",
          "type": "address"
        }
      ],
      "stateMutability": "payable",
      "type": "constructor"
    },
    {
      "inputs": [],
      "name": "amount",
      "outputs": [
        {
          "internalType": "uint256",
          "name": "",
          "type": "uint256"
        }
      ],
      "stateMutability": "view",
      "type": "function"
    },
    {
      "inputs": [],
      "name": "client",
      "outputs": [
        {
          "internalType": "address",
          "name": "",
          "type": "address"
        }
      ],
      "stateMutability": "view",
      "type": "function"
    },
    {
      "inputs": [],
      "name": "freelancer",
      "outputs": [
        {
          "internalType": "address",
          "name": "",
          "type": "address"
        }
      ],
      "stateMutability": "view",
      "type": "function"
    },
    {
      "inputs": [],
      "name": "isComplete",
      "outputs": [
        {
          "internalType": "bool",
          "name": "",
          "type": "bool"
        }
      ],
      "stateMutability": "view",
      "type": "function"
    },
    {
      "inputs": [],
      "name": "releaseFunds",
      "outputs": [],
      "stateMutability": "nonpayable",
      "type": "function"
    }
  ],
  "bytecode": "0x60806040526040516105f93803806105f983398181016040528101906100259190610131565b336000806101000a81548173ffffffffffffffffffffffffffffffffffffffff021916908373ffffffffffffffffffffffffffffffffffffffff16021790555080600160006101000a81548173ffffffffffffffffffffffffffffffffffffffff021916908373ffffffffffffffffffffffffffffffffffffffff160217905550346002819055506000600360006101000a81548160ff0219169083151502179055505061015e565b600080fd5b600073ffffffffffffffffffffffffffffffffffffffff82169050919050565b60006100fe826100d3565b9050919050565b61010e816100f3565b811461011957600080fd5b50565b60008151905061012b81610105565b92915050565b600060208284031215610147576101466100ce565b5b60006101558482850161011c565b91505092915050565b61048c8061016d6000396000f3fe608060405234801561001057600080fd5b50600436106100575760003560e01c8063109e94cf1461005c57806369d895751461007a578063a37dda2c14610084578063aa8c217c146100a2578063b2fa1c9e146100c0575b600080fd5b6100646100de565b60405161007191906102e8565b60405180910390f35b610082610102565b005b61008c610268565b60405161009991906102e8565b60405180910390f35b6100aa61028e565b6040516100b7919061031c565b60405180910390f35b6100c8610294565b6040516100d59190610352565b60405180910390f35b60008054906101000a900473ffffffffffffffffffffffffffffffffffffffff1681565b60008054906101000a900473ffffffffffffffffffffffffffffffffffffffff1673ffffffffffffffffffffffffffffffffffffffff163373ffffffffffffffffffffffffffffffffffffffff1614610190576040517f08c379a0000000000000000000000000000000000000000000000000000000008152600401610187906103ca565b60405180910390fd5b600360009054906101000a900460ff16156101e0576040517f08c379a00000000000000000000000000000000000000000000000000000000081526004016101d790610436565b60405180910390fd5b6001600360006101000a81548160ff021916908315150217905550600160009054906101000a900473ffffffffffffffffffffffffffffffffffffffff1673ffffffffffffffffffffffffffffffffffffffff166108fc6002549081150290604051600060405180830381858888f19350505050158015610265573d6000803e3d6000fd5b50565b600160009054906101000a900473ffffffffffffffffffffffffffffffffffffffff1681565b60025481565b600360009054906101000a900460ff1681565b600073ffffffffffffffffffffffffffffffffffffffff82169050919050565b60006102d2826102a7565b9050919050565b6102e2816102c7565b82525050565b60006020820190506102fd60008301846102d9565b92915050565b6000819050919050565b61031681610303565b82525050565b6000602082019050610331600083018461030d565b92915050565b60008115159050919050565b61034c81610337565b82525050565b60006020820190506103676000830184610343565b92915050565b600082825260208201905092915050565b7f4f6e6c7920636c69656e742063616e2072656c656173652066756e6473000000600082015250565b60006103b4601d8361036d565b91506103bf8261037e565b602082019050919050565b600060208201905081810360008301526103e3816103a7565b9050919050565b7f416c72656164792072656c656173656400000000000000000000000000000000600082015250565b600061042060108361036d565b915061042b826103ea565b602082019050919050565b6000602082019050818103600083015261044f81610413565b905091905056fea26469706673582212204e2fb19e0ce9aac189103b7d59da4410193ff21cdd9778435cc462cf3e12f16264736f6c634300081c0033",
  "linkReferences": {},
  "deployedLinkReferences": {}
}