{
  "_format": "hh-sol-artifact-1",
  "contractName": "Escrow",
  "sourceName": "contracts/Escrow.sol",
  "abi": [
    {
      "inputs": [
        {
          "internalType": "address",
          "name": "_freelancer",
          "type": "address"
        }
      ],
      "stateMutability": "payable",
      "type": "constructor"
    },
    {
      "inputs": [],
      "name": "Escrow__EtherTransferFailed",
      "type": "error"
    },
    {
      "inputs": [],
      "name": "Escrow__FundsAlreadyReleased",
      "type": "error"
    },
    {
      "inputs": [],
      "name": "Escrow__InsufficientBalance",
      "type": "error"
    },
    {
      "inputs": [],
      "name": "Escrow__InvalidFreelancerAddress",
      "type": "error"
    },
    {
      "inputs": [],
      "name": "Escrow__NoEtherSent",
      "type": "error"
    },
    {
      "inputs": [],
      "name": "Escrow__NotClient",
      "type": "error"
    },
    {
      "anonymous": false,
      "inputs": [
        {
          "indexed": true,
          "internalType": "address",
          "name": "client",
          "type": "address"
        },
        {
          "indexed": true,
          "internalType": "address",
          "name": "freelancer",
          "type": "address"
        },
        {
          "indexed": false,
          "internalType": "uint256",
          "name": "amount",
          "type": "uint256"
        }
      ],
      "name": "FundsDeposited",
      "type": "event"
    },
    {
      "anonymous": false,
      "inputs": [
        {
          "indexed": true,
          "internalType": "address",
          "name": "freelancer",
          "type": "address"
        },
        {
          "indexed": false,
          "internalType": "uint256",
          "name": "amount",
          "type": "uint256"
        }
      ],
      "name": "FundsReleased",
      "type": "event"
    },
    {
      "inputs": [],
      "name": "getBalance",
      "outputs": [
        {
          "internalType": "uint256",
          "name": "",
          "type": "uint256"
        }
      ],
      "stateMutability": "view",
      "type": "function"
    },
    {
      "inputs": [],
      "name": "i_amount",
      "outputs": [
        {
          "internalType": "uint256",
          "name": "",
          "type": "uint256"
        }
      ],
      "stateMutability": "view",
      "type": "function"
    },
    {
      "inputs": [],
      "name": "i_client",
      "outputs": [
        {
          "internalType": "address",
          "name": "",
          "type": "address"
        }
      ],
      "stateMutability": "view",
      "type": "function"
    },
    {
      "inputs": [],
      "name": "i_freelancer",
      "outputs": [
        {
          "internalType": "address",
          "name": "",
          "type": "address"
        }
      ],
      "stateMutability": "view",
      "type": "function"
    },
    {
      "inputs": [],
      "name": "releaseFunds",
      "outputs": [],
      "stateMutability": "nonpayable",
      "type": "function"
    },
    {
      "inputs": [],
      "name": "s_isComplete",
      "outputs": [
        {
          "internalType": "bool",
          "name": "",
          "type": "bool"
        }
      ],
      "stateMutability": "view",
      "type": "function"
    }
  ],
  "bytecode": "0x60e06040526040516108573803806108578339818101604052810190610025919061021d565b6000341161005f576040517f8995622d00000000000000000000000000000000000000000000000000000000815260040160405180910390fd5b600073ffffffffffffffffffffffffffffffffffffffff168173ffffffffffffffffffffffffffffffffffffffff16036100c5576040517f1f8d813d00000000000000000000000000000000000000000000000000000000815260040160405180910390fd5b3373ffffffffffffffffffffffffffffffffffffffff1660808173ffffffffffffffffffffffffffffffffffffffff16815250508073ffffffffffffffffffffffffffffffffffffffff1660a08173ffffffffffffffffffffffffffffffffffffffff16815250503460c0818152505060008060006101000a81548160ff0219169083151502179055508073ffffffffffffffffffffffffffffffffffffffff163373ffffffffffffffffffffffffffffffffffffffff167ff0d0e99cae184d0187b093b48894117462462379674a6e11d89c3fbb618e96b0346040516101ac9190610263565b60405180910390a35061027e565b600080fd5b600073ffffffffffffffffffffffffffffffffffffffff82169050919050565b60006101ea826101bf565b9050919050565b6101fa816101df565b811461020557600080fd5b50565b600081519050610217816101f1565b92915050565b600060208284031215610233576102326101ba565b5b600061024184828501610208565b91505092915050565b6000819050919050565b61025d8161024a565b82525050565b60006020820190506102786000830184610254565b92915050565b60805160a05160c0516105806102d7600039600081816101090152818161025801528181610305015261040701526000818161012d015281816102ce01526103af015260008181610159015261018e01526105806000f3fe608060405234801561001057600080fd5b50600436106100625760003560e01c806301619d3d1461006757806311a5ab691461008557806312065fe0146100a3578063313b9204146100c15780633888e836146100df57806369d89575146100fd575b600080fd5b61006f610107565b60405161007c9190610457565b60405180910390f35b61008d61012b565b60405161009a91906104b3565b60405180910390f35b6100ab61014f565b6040516100b89190610457565b60405180910390f35b6100c9610157565b6040516100d691906104b3565b60405180910390f35b6100e761017b565b6040516100f491906104e9565b60405180910390f35b61010561018c565b005b7f000000000000000000000000000000000000000000000000000000000000000081565b7f000000000000000000000000000000000000000000000000000000000000000081565b600047905090565b7f000000000000000000000000000000000000000000000000000000000000000081565b60008054906101000a900460ff1681565b7f000000000000000000000000000000000000000000000000000000000000000073ffffffffffffffffffffffffffffffffffffffff163373ffffffffffffffffffffffffffffffffffffffff1614610211576040517f469a509500000000000000000000000000000000000000000000000000000000815260040160405180910390fd5b60008054906101000a900460ff1615610256576040517f3f0096e300000000000000000000000000000000000000000000000000000000815260040160405180910390fd5b7f00000000000000000000000000000000000000000000000000000000000000004710156102b0576040517f4b71d25500000000000000000000000000000000000000000000000000000000815260040160405180910390fd5b60016000806101000a81548160ff02191690831515021790555060007f000000000000000000000000000000000000000000000000000000000000000073ffffffffffffffffffffffffffffffffffffffff167f000000000000000000000000000000000000000000000000000000000000000060405161033090610535565b60006040518083038185875af1925050503d806000811461036d576040519150601f19603f3d011682016040523d82523d6000602084013e610372565b606091505b50509050806103ad576040517ffddc092300000000000000000000000000000000000000000000000000000000815260040160405180910390fd5b7f000000000000000000000000000000000000000000000000000000000000000073ffffffffffffffffffffffffffffffffffffffff167f221c08a06b07a64803b3787861a3f276212fcccb51c2e6234077a9b8cb13047a7f00000000000000000000000000000000000000000000000000000000000000006040516104339190610457565b60405180910390a250565b6000819050919050565b6104518161043e565b82525050565b600060208201905061046c6000830184610448565b92915050565b600073ffffffffffffffffffffffffffffffffffffffff82169050919050565b600061049d82610472565b9050919050565b6104ad81610492565b82525050565b60006020820190506104c860008301846104a4565b92915050565b60008115159050919050565b6104e3816104ce565b82525050565b60006020820190506104fe60008301846104da565b92915050565b600081905092915050565b50565b600061051f600083610504565b915061052a8261050f565b600082019050919050565b600061054082610512565b915081905091905056fea2646970667358221220a1e332674672cbd8d02b0dd1b137e66f8312adcc6a038d777d9754802c8be0a464736f6c634300081c0033",
  "linkReferences": {},
  "deployedLinkReferences": {}
}