{
  "_format": "hh-sol-artifact-1",
  "contractName": "EventTicketNFT",
  "sourceName": "contracts/EventTicketNFT.sol",
  "abi": [
    {
      "inputs": [
        {
          "internalType": "address",
          "name": "initialOwner",
          "type": "address"
        }
      ],
      "stateMutability": "nonpayable",
      "type": "constructor"
    },
    {
      "inputs": [],
      "name": "EventTicketNFT__EmptyTokenURI",
      "type": "error"
    },
    {
      "inputs": [],
      "name": "EventTicketNFT__InvalidOwnerAddress",
      "type": "error"
    },
    {
      "inputs": [],
      "name": "EventTicketNFT__InvalidRecipientAddress",
      "type": "error"
    },
    {
      "anonymous": false,
      "inputs": [
        {
          "indexed": true,
          "internalType": "address",
          "name": "owner",
          "type": "address"
        },
        {
          "indexed": true,
          "internalType": "address",
          "name": "approved",
          "type": "address"
        },
        {
          "indexed": true,
          "internalType": "uint256",
          "name": "tokenId",
          "type": "uint256"
        }
      ],
      "name": "Approval",
      "type": "event"
    },
    {
      "anonymous": false,
      "inputs": [
        {
          "indexed": true,
          "internalType": "address",
          "name": "owner",
          "type": "address"
        },
        {
          "indexed": true,
          "internalType": "address",
          "name": "operator",
          "type": "address"
        },
        {
          "indexed": false,
          "internalType": "bool",
          "name": "approved",
          "type": "bool"
        }
      ],
      "name": "ApprovalForAll",
      "type": "event"
    },
    {
      "anonymous": false,
      "inputs": [
        {
          "indexed": false,
          "internalType": "uint256",
          "name": "_fromTokenId",
          "type": "uint256"
        },
        {
          "indexed": false,
          "internalType": "uint256",
          "name": "_toTokenId",
          "type": "uint256"
        }
      ],
      "name": "BatchMetadataUpdate",
      "type": "event"
    },
    {
      "anonymous": false,
      "inputs": [
        {
          "indexed": false,
          "internalType": "uint256",
          "name": "_tokenId",
          "type": "uint256"
        }
      ],
      "name": "MetadataUpdate",
      "type": "event"
    },
    {
      "anonymous": false,
      "inputs": [
        {
          "indexed": true,
          "internalType": "address",
          "name": "previousOwner",
          "type": "address"
        },
        {
          "indexed": true,
          "internalType": "address",
          "name": "newOwner",
          "type": "address"
        }
      ],
      "name": "OwnershipTransferred",
      "type": "event"
    },
    {
      "anonymous": false,
      "inputs": [
        {
          "indexed": true,
          "internalType": "address",
          "name": "to",
          "type": "address"
        },
        {
          "indexed": true,
          "internalType": "uint256",
          "name": "tokenId",
          "type": "uint256"
        },
        {
          "indexed": false,
          "internalType": "string",
          "name": "tokenURI",
          "type": "string"
        }
      ],
      "name": "TicketMinted",
      "type": "event"
    },
    {
      "anonymous": false,
      "inputs": [
        {
          "indexed": true,
          "internalType": "address",
          "name": "from",
          "type": "address"
        },
        {
          "indexed": true,
          "internalType": "address",
          "name": "to",
          "type": "address"
        },
        {
          "indexed": true,
          "internalType": "uint256",
          "name": "tokenId",
          "type": "uint256"
        }
      ],
      "name": "Transfer",
      "type": "event"
    },
    {
      "inputs": [
        {
          "internalType": "address",
          "name": "to",
          "type": "address"
        },
        {
          "internalType": "uint256",
          "name": "tokenId",
          "type": "uint256"
        }
      ],
      "name": "approve",
      "outputs": [],
      "stateMutability": "nonpayable",
      "type": "function"
    },
    {
      "inputs": [
        {
          "internalType": "address",
          "name": "owner",
          "type": "address"
        }
      ],
      "name": "balanceOf",
      "outputs": [
        {
          "internalType": "uint256",
          "name": "",
          "type": "uint256"
        }
      ],
      "stateMutability": "view",
      "type": "function"
    },
    {
      "inputs": [
        {
          "internalType": "uint256",
          "name": "tokenId",
          "type": "uint256"
        }
      ],
      "name": "getApproved",
      "outputs": [
        {
          "internalType": "address",
          "name": "",
          "type": "address"
        }
      ],
      "stateMutability": "view",
      "type": "function"
    },
    {
      "inputs": [],
      "name": "getTokenCounter",
      "outputs": [
        {
          "internalType": "uint256",
          "name": "",
          "type": "uint256"
        }
      ],
      "stateMutability": "view",
      "type": "function"
    },
    {
      "inputs": [
        {
          "internalType": "address",
          "name": "owner",
          "type": "address"
        },
        {
          "internalType": "address",
          "name": "operator",
          "type": "address"
        }
      ],
      "name": "isApprovedForAll",
      "outputs": [
        {
          "internalType": "bool",
          "name": "",
          "type": "bool"
        }
      ],
      "stateMutability": "view",
      "type": "function"
    },
    {
      "inputs": [
        {
          "internalType": "string",
          "name": "tokenURI",
          "type": "string"
        }
      ],
      "name": "mintTicket",
      "outputs": [
        {
          "internalType": "uint256",
          "name": "",
          "type": "uint256"
        }
      ],
      "stateMutability": "nonpayable",
      "type": "function"
    },
    {
      "inputs": [],
      "name": "name",
      "outputs": [
        {
          "internalType": "string",
          "name": "",
          "type": "string"
        }
      ],
      "stateMutability": "view",
      "type": "function"
    },
    {
      "inputs": [],
      "name": "owner",
      "outputs": [
        {
          "internalType": "address",
          "name": "",
          "type": "address"
        }
      ],
      "stateMutability": "view",
      "type": "function"
    },
    {
      "inputs": [
        {
          "internalType": "uint256",
          "name": "tokenId",
          "type": "uint256"
        }
      ],
      "name": "ownerOf",
      "outputs": [
        {
          "internalType": "address",
          "name": "",
          "type": "address"
        }
      ],
      "stateMutability": "view",
      "type": "function"
    },
    {
      "inputs": [],
      "name": "renounceOwnership",
      "outputs": [],
      "stateMutability": "nonpayable",
      "type": "function"
    },
    {
      "inputs": [
        {
          "internalType": "address",
          "name": "to",
          "type": "address"
        },
        {
          "internalType": "string",
          "name": "uri",
          "type": "string"
        }
      ],
      "name": "safeMint",
      "outputs": [],
      "stateMutability": "nonpayable",
      "type": "function"
    },
    {
      "inputs": [
        {
          "internalType": "address",
          "name": "from",
          "type": "address"
        },
        {
          "internalType": "address",
          "name": "to",
          "type": "address"
        },
        {
          "internalType": "uint256",
          "name": "tokenId",
          "type": "uint256"
        }
      ],
      "name": "safeTransferFrom",
      "outputs": [],
      "stateMutability": "nonpayable",
      "type": "function"
    },
    {
      "inputs": [
        {
          "internalType": "address",
          "name": "from",
          "type": "address"
        },
        {
          "internalType": "address",
          "name": "to",
          "type": "address"
        },
        {
          "internalType": "uint256",
          "name": "tokenId",
          "type": "uint256"
        },
        {
          "internalType": "bytes",
          "name": "data",
          "type": "bytes"
        }
      ],
      "name": "safeTransferFrom",
      "outputs": [],
      "stateMutability": "nonpayable",
      "type": "function"
    },
    {
      "inputs": [
        {
          "internalType": "address",
          "name": "operator",
          "type": "address"
        },
        {
          "internalType": "bool",
          "name": "approved",
          "type": "bool"
        }
      ],
      "name": "setApprovalForAll",
      "outputs": [],
      "stateMutability": "nonpayable",
      "type": "function"
    },
    {
      "inputs": [
        {
          "internalType": "bytes4",
          "name": "interfaceId",
          "type": "bytes4"
        }
      ],
      "name": "supportsInterface",
      "outputs": [
        {
          "internalType": "bool",
          "name": "",
          "type": "bool"
        }
      ],
      "stateMutability": "view",
      "type": "function"
    },
    {
      "inputs": [],
      "name": "symbol",
      "outputs": [
        {
          "internalType": "string",
          "name": "",
          "type": "string"
        }
      ],
      "stateMutability": "view",
      "type": "function"
    },
    {
      "inputs": [
        {
          "internalType": "uint256",
          "name": "tokenId",
          "type": "uint256"
        }
      ],
      "name": "tokenURI",
      "outputs": [
        {
          "internalType": "string",
          "name": "",
          "type": "string"
        }
      ],
      "stateMutability": "view",
      "type": "function"
    },
    {
      "inputs": [
        {
          "internalType": "address",
          "name": "from",
          "type": "address"
        },
        {
          "internalType": "address",
          "name": "to",
          "type": "address"
        },
        {
          "internalType": "uint256",
          "name": "tokenId",
          "type": "uint256"
        }
      ],
      "name": "transferFrom",
      "outputs": [],
      "stateMutability": "nonpayable",
      "type": "function"
    },
    {
      "inputs": [
        {
          "internalType": "address",
          "name": "newOwner",
          "type": "address"
        }
      ],
      "name": "transferOwnership",
      "outputs": [],
      "stateMutability": "nonpayable",
      "type": "function"
    }
  ],
  "bytecode": "0x608060405234801561001057600080fd5b506040516139c13803806139c1833981810160405281019061003291906103d3565b6040518060400160405280600c81526020017f4576656e74205469636b657400000000000000000000000000000000000000008152506040518060400160405280600481526020017f455449580000000000000000000000000000000000000000000000000000000081525081600090816100ad9190610650565b5080600190816100bd9190610650565b5050506100dc6100d161015f60201b60201c565b61016760201b60201c565b600073ffffffffffffffffffffffffffffffffffffffff168173ffffffffffffffffffffffffffffffffffffffff1603610142576040517fe174876a00000000000000000000000000000000000000000000000000000000815260040160405180910390fd5b6101518161022d60201b60201c565b600060098190555050610831565b600033905090565b6000600760009054906101000a900473ffffffffffffffffffffffffffffffffffffffff16905081600760006101000a81548173ffffffffffffffffffffffffffffffffffffffff021916908373ffffffffffffffffffffffffffffffffffffffff1602179055508173ffffffffffffffffffffffffffffffffffffffff168173ffffffffffffffffffffffffffffffffffffffff167f8be0079c531659141344cd1fd0a4f28419497f9722a3daafe3b4186f6b6457e060405160405180910390a35050565b61023b6102bc60201b60201c565b600073ffffffffffffffffffffffffffffffffffffffff168173ffffffffffffffffffffffffffffffffffffffff16036102aa576040517f08c379a00000000000000000000000000000000000000000000000000000000081526004016102a1906107a5565b60405180910390fd5b6102b98161016760201b60201c565b50565b6102ca61015f60201b60201c565b73ffffffffffffffffffffffffffffffffffffffff166102ee61034660201b60201c565b73ffffffffffffffffffffffffffffffffffffffff1614610344576040517f08c379a000000000000000000000000000000000000000000000000000000000815260040161033b90610811565b60405180910390fd5b565b6000600760009054906101000a900473ffffffffffffffffffffffffffffffffffffffff16905090565b600080fd5b600073ffffffffffffffffffffffffffffffffffffffff82169050919050565b60006103a082610375565b9050919050565b6103b081610395565b81146103bb57600080fd5b50565b6000815190506103cd816103a7565b92915050565b6000602082840312156103e9576103e8610370565b5b60006103f7848285016103be565b91505092915050565b600081519050919050565b7f4e487b7100000000000000000000000000000000000000000000000000000000600052604160045260246000fd5b7f4e487b7100000000000000000000000000000000000000000000000000000000600052602260045260246000fd5b6000600282049050600182168061048157607f821691505b6020821081036104945761049361043a565b5b50919050565b60008190508160005260206000209050919050565b60006020601f8301049050919050565b600082821b905092915050565b6000600883026104fc7fffffffffffffffffffffffffffffffffffffffffffffffffffffffffffffffff826104bf565b61050686836104bf565b95508019841693508086168417925050509392505050565b6000819050919050565b6000819050919050565b600061054d6105486105438461051e565b610528565b61051e565b9050919050565b6000819050919050565b61056783610532565b61057b61057382610554565b8484546104cc565b825550505050565b600090565b610590610583565b61059b81848461055e565b505050565b5b818110156105bf576105b4600082610588565b6001810190506105a1565b5050565b601f821115610604576105d58161049a565b6105de846104af565b810160208510156105ed578190505b6106016105f9856104af565b8301826105a0565b50505b505050565b600082821c905092915050565b600061062760001984600802610609565b1980831691505092915050565b60006106408383610616565b9150826002028217905092915050565b61065982610400565b67ffffffffffffffff8111156106725761067161040b565b5b61067c8254610469565b6106878282856105c3565b600060209050601f8311600181146106ba57600084156106a8578287015190505b6106b28582610634565b86555061071a565b601f1984166106c88661049a565b60005b828110156106f0578489015182556001820191506020850194506020810190506106cb565b8683101561070d5784890151610709601f891682610616565b8355505b6001600288020188555050505b505050505050565b600082825260208201905092915050565b7f4f776e61626c653a206e6577206f776e657220697320746865207a65726f206160008201527f6464726573730000000000000000000000000000000000000000000000000000602082015250565b600061078f602683610722565b915061079a82610733565b604082019050919050565b600060208201905081810360008301526107be81610782565b9050919050565b7f4f776e61626c653a2063616c6c6572206973206e6f7420746865206f776e6572600082015250565b60006107fb602083610722565b9150610806826107c5565b602082019050919050565b6000602082019050818103600083015261082a816107ee565b9050919050565b613181806108406000396000f3fe608060405234801561001057600080fd5b50600436106101215760003560e01c8063715018a6116100ad578063b88d4fde11610071578063b88d4fde14610308578063c87b56dd14610324578063d204c45e14610354578063e985e9c514610370578063f2fde38b146103a057610121565b8063715018a6146102765780638da5cb5b1461028057806395d89b411461029e57806396651ecf146102bc578063a22cb465146102ec57610121565b806323b872dd116100f457806323b872dd146101c057806342842e0e146101dc5780636352211e146101f85780636e02007d1461022857806370a082311461024657610121565b806301ffc9a71461012657806306fdde0314610156578063081812fc14610174578063095ea7b3146101a4575b600080fd5b610140600480360381019061013b9190611ec6565b6103bc565b60405161014d9190611f0e565b60405180910390f35b61015e61041d565b60405161016b9190611fb9565b60405180910390f35b61018e60048036038101906101899190612011565b6104af565b60405161019b919061207f565b60405180910390f35b6101be60048036038101906101b991906120c6565b6104f5565b005b6101da60048036038101906101d59190612106565b61060c565b005b6101f660048036038101906101f19190612106565b61066c565b005b610212600480360381019061020d9190612011565b61068c565b60405161021f919061207f565b60405180910390f35b610230610712565b60405161023d9190612168565b60405180910390f35b610260600480360381019061025b9190612183565b61071c565b60405161026d9190612168565b60405180910390f35b61027e6107d3565b005b6102886107e7565b604051610295919061207f565b60405180910390f35b6102a6610811565b6040516102b39190611fb9565b60405180910390f35b6102d660048036038101906102d191906122e5565b6108a3565b6040516102e39190612168565b60405180910390f35b6103066004803603810190610301919061235a565b61096c565b005b610322600480360381019061031d919061243b565b610982565b005b61033e60048036038101906103399190612011565b6109e4565b60405161034b9190611fb9565b60405180910390f35b61036e600480360381019061036991906124be565b610af6565b005b61038a6004803603810190610385919061251a565b610c1f565b6040516103979190611f0e565b60405180910390f35b6103ba60048036038101906103b59190612183565b610cb3565b005b6000634906490660e01b7bffffffffffffffffffffffffffffffffffffffffffffffffffffffff1916827bffffffffffffffffffffffffffffffffffffffffffffffffffffffff19161480610416575061041582610d36565b5b9050919050565b60606000805461042c90612589565b80601f016020809104026020016040519081016040528092919081815260200182805461045890612589565b80156104a55780601f1061047a576101008083540402835291602001916104a5565b820191906000526020600020905b81548152906001019060200180831161048857829003601f168201915b5050505050905090565b60006104ba82610e18565b6004600083815260200190815260200160002060009054906101000a900473ffffffffffffffffffffffffffffffffffffffff169050919050565b60006105008261068c565b90508073ffffffffffffffffffffffffffffffffffffffff168373ffffffffffffffffffffffffffffffffffffffff1603610570576040517f08c379a00000000000000000000000000000000000000000000000000000000081526004016105679061262c565b60405180910390fd5b8073ffffffffffffffffffffffffffffffffffffffff1661058f610e63565b73ffffffffffffffffffffffffffffffffffffffff1614806105be57506105bd816105b8610e63565b610c1f565b5b6105fd576040517f08c379a00000000000000000000000000000000000000000000000000000000081526004016105f4906126be565b60405180910390fd5b6106078383610e6b565b505050565b61061d610617610e63565b82610f24565b61065c576040517f08c379a000000000000000000000000000000000000000000000000000000000815260040161065390612750565b60405180910390fd5b610667838383610fb9565b505050565b61068783838360405180602001604052806000815250610982565b505050565b600080610698836112b2565b9050600073ffffffffffffffffffffffffffffffffffffffff168173ffffffffffffffffffffffffffffffffffffffff1603610709576040517f08c379a0000000000000000000000000000000000000000000000000000000008152600401610700906127bc565b60405180910390fd5b80915050919050565b6000600954905090565b60008073ffffffffffffffffffffffffffffffffffffffff168273ffffffffffffffffffffffffffffffffffffffff160361078c576040517f08c379a00000000000000000000000000000000000000000000000000000000081526004016107839061284e565b60405180910390fd5b600360008373ffffffffffffffffffffffffffffffffffffffff1673ffffffffffffffffffffffffffffffffffffffff168152602001908152602001600020549050919050565b6107db6112ef565b6107e5600061136d565b565b6000600760009054906101000a900473ffffffffffffffffffffffffffffffffffffffff16905090565b60606001805461082090612589565b80601f016020809104026020016040519081016040528092919081815260200182805461084c90612589565b80156108995780601f1061086e57610100808354040283529160200191610899565b820191906000526020600020905b81548152906001019060200180831161087c57829003601f168201915b5050505050905090565b6000808251036108df576040517f8e83899e00000000000000000000000000000000000000000000000000000000815260040160405180910390fd5b600060095490506108f03382611433565b6108fa8184611451565b60016009600082825461090d919061289d565b92505081905550803373ffffffffffffffffffffffffffffffffffffffff167ff16f1e8b680ea7f1e8a1f849eb82762cba60ddcef854d36909e3173483281c8c8560405161095b9190611fb9565b60405180910390a380915050919050565b61097e610977610e63565b83836114f5565b5050565b61099361098d610e63565b83610f24565b6109d2576040517f08c379a00000000000000000000000000000000000000000000000000000000081526004016109c990612750565b60405180910390fd5b6109de84848484611661565b50505050565b60606109ef82610e18565b6000600660008481526020019081526020016000208054610a0f90612589565b80601f0160208091040260200160405190810160405280929190818152602001828054610a3b90612589565b8015610a885780601f10610a5d57610100808354040283529160200191610a88565b820191906000526020600020905b815481529060010190602001808311610a6b57829003601f168201915b505050505090506000610a996116bd565b90506000815103610aae578192505050610af1565b600082511115610ae3578082604051602001610acb92919061290d565b60405160208183030381529060405292505050610af1565b610aec846116d4565b925050505b919050565b610afe6112ef565b600073ffffffffffffffffffffffffffffffffffffffff168273ffffffffffffffffffffffffffffffffffffffff1603610b64576040517f81b6db3b00000000000000000000000000000000000000000000000000000000815260040160405180910390fd5b6000815103610b9f576040517f8e83899e00000000000000000000000000000000000000000000000000000000815260040160405180910390fd5b6000610bab600861173c565b9050610bb7600861174a565b610bc18382611433565b610bcb8183611451565b808373ffffffffffffffffffffffffffffffffffffffff167ff16f1e8b680ea7f1e8a1f849eb82762cba60ddcef854d36909e3173483281c8c84604051610c129190611fb9565b60405180910390a3505050565b6000600560008473ffffffffffffffffffffffffffffffffffffffff1673ffffffffffffffffffffffffffffffffffffffff16815260200190815260200160002060008373ffffffffffffffffffffffffffffffffffffffff1673ffffffffffffffffffffffffffffffffffffffff16815260200190815260200160002060009054906101000a900460ff16905092915050565b610cbb6112ef565b600073ffffffffffffffffffffffffffffffffffffffff168173ffffffffffffffffffffffffffffffffffffffff1603610d2a576040517f08c379a0000000000000000000000000000000000000000000000000000000008152600401610d21906129a3565b60405180910390fd5b610d338161136d565b50565b60007f80ac58cd000000000000000000000000000000000000000000000000000000007bffffffffffffffffffffffffffffffffffffffffffffffffffffffff1916827bffffffffffffffffffffffffffffffffffffffffffffffffffffffff19161480610e0157507f5b5e139f000000000000000000000000000000000000000000000000000000007bffffffffffffffffffffffffffffffffffffffffffffffffffffffff1916827bffffffffffffffffffffffffffffffffffffffffffffffffffffffff1916145b80610e115750610e1082611760565b5b9050919050565b610e21816117ca565b610e60576040517f08c379a0000000000000000000000000000000000000000000000000000000008152600401610e57906127bc565b60405180910390fd5b50565b600033905090565b816004600083815260200190815260200160002060006101000a81548173ffffffffffffffffffffffffffffffffffffffff021916908373ffffffffffffffffffffffffffffffffffffffff160217905550808273ffffffffffffffffffffffffffffffffffffffff16610ede8361068c565b73ffffffffffffffffffffffffffffffffffffffff167f8c5be1e5ebec7d5bd14f71427d1e84f3dd0314c0f7b2291e5b200ac8c7c3b92560405160405180910390a45050565b600080610f308361068c565b90508073ffffffffffffffffffffffffffffffffffffffff168473ffffffffffffffffffffffffffffffffffffffff161480610f725750610f718185610c1f565b5b80610fb057508373ffffffffffffffffffffffffffffffffffffffff16610f98846104af565b73ffffffffffffffffffffffffffffffffffffffff16145b91505092915050565b8273ffffffffffffffffffffffffffffffffffffffff16610fd98261068c565b73ffffffffffffffffffffffffffffffffffffffff161461102f576040517f08c379a000000000000000000000000000000000000000000000000000000000815260040161102690612a35565b60405180910390fd5b600073ffffffffffffffffffffffffffffffffffffffff168273ffffffffffffffffffffffffffffffffffffffff160361109e576040517f08c379a000000000000000000000000000000000000000000000000000000000815260040161109590612ac7565b60405180910390fd5b6110ab838383600161180b565b8273ffffffffffffffffffffffffffffffffffffffff166110cb8261068c565b73ffffffffffffffffffffffffffffffffffffffff1614611121576040517f08c379a000000000000000000000000000000000000000000000000000000000815260040161111890612a35565b60405180910390fd5b6004600082815260200190815260200160002060006101000a81549073ffffffffffffffffffffffffffffffffffffffff02191690556001600360008573ffffffffffffffffffffffffffffffffffffffff1673ffffffffffffffffffffffffffffffffffffffff168152602001908152602001600020600082825403925050819055506001600360008473ffffffffffffffffffffffffffffffffffffffff1673ffffffffffffffffffffffffffffffffffffffff16815260200190815260200160002060008282540192505081905550816002600083815260200190815260200160002060006101000a81548173ffffffffffffffffffffffffffffffffffffffff021916908373ffffffffffffffffffffffffffffffffffffffff160217905550808273ffffffffffffffffffffffffffffffffffffffff168473ffffffffffffffffffffffffffffffffffffffff167fddf252ad1be2c89b69c2b068fc378daa952ba7f163c4a11628f55a4df523b3ef60405160405180910390a46112ad8383836001611811565b505050565b60006002600083815260200190815260200160002060009054906101000a900473ffffffffffffffffffffffffffffffffffffffff169050919050565b6112f7610e63565b73ffffffffffffffffffffffffffffffffffffffff166113156107e7565b73ffffffffffffffffffffffffffffffffffffffff161461136b576040517f08c379a000000000000000000000000000000000000000000000000000000000815260040161136290612b33565b60405180910390fd5b565b6000600760009054906101000a900473ffffffffffffffffffffffffffffffffffffffff16905081600760006101000a81548173ffffffffffffffffffffffffffffffffffffffff021916908373ffffffffffffffffffffffffffffffffffffffff1602179055508173ffffffffffffffffffffffffffffffffffffffff168173ffffffffffffffffffffffffffffffffffffffff167f8be0079c531659141344cd1fd0a4f28419497f9722a3daafe3b4186f6b6457e060405160405180910390a35050565b61144d828260405180602001604052806000815250611817565b5050565b61145a826117ca565b611499576040517f08c379a000000000000000000000000000000000000000000000000000000000815260040161149090612bc5565b60405180910390fd5b806006600084815260200190815260200160002090816114b99190612d91565b507ff8e1a15aba9398e019f0b49df1a4fde98ee17ae345cb5f6b5e2c27f5033e8ce7826040516114e99190612168565b60405180910390a15050565b8173ffffffffffffffffffffffffffffffffffffffff168373ffffffffffffffffffffffffffffffffffffffff1603611563576040517f08c379a000000000000000000000000000000000000000000000000000000000815260040161155a90612eaf565b60405180910390fd5b80600560008573ffffffffffffffffffffffffffffffffffffffff1673ffffffffffffffffffffffffffffffffffffffff16815260200190815260200160002060008473ffffffffffffffffffffffffffffffffffffffff1673ffffffffffffffffffffffffffffffffffffffff16815260200190815260200160002060006101000a81548160ff0219169083151502179055508173ffffffffffffffffffffffffffffffffffffffff168373ffffffffffffffffffffffffffffffffffffffff167f17307eab39ab6107e8899845ad3d59bd9653f200f220920489ca2b5937696c31836040516116549190611f0e565b60405180910390a3505050565b61166c848484610fb9565b61167884848484611872565b6116b7576040517f08c379a00000000000000000000000000000000000000000000000000000000081526004016116ae90612f41565b60405180910390fd5b50505050565b606060405180602001604052806000815250905090565b60606116df82610e18565b60006116e96116bd565b905060008151116117095760405180602001604052806000815250611734565b80611713846119f9565b60405160200161172492919061290d565b6040516020818303038152906040525b915050919050565b600081600001549050919050565b6001816000016000828254019250508190555050565b60007f01ffc9a7000000000000000000000000000000000000000000000000000000007bffffffffffffffffffffffffffffffffffffffffffffffffffffffff1916827bffffffffffffffffffffffffffffffffffffffffffffffffffffffff1916149050919050565b60008073ffffffffffffffffffffffffffffffffffffffff166117ec836112b2565b73ffffffffffffffffffffffffffffffffffffffff1614159050919050565b50505050565b50505050565b6118218383611ac7565b61182e6000848484611872565b61186d576040517f08c379a000000000000000000000000000000000000000000000000000000000815260040161186490612f41565b60405180910390fd5b505050565b60006118938473ffffffffffffffffffffffffffffffffffffffff16611ce4565b156119ec578373ffffffffffffffffffffffffffffffffffffffff1663150b7a026118bc610e63565b8786866040518563ffffffff1660e01b81526004016118de9493929190612fb6565b6020604051808303816000875af192505050801561191a57506040513d601f19601f820116820180604052508101906119179190613017565b60015b61199c573d806000811461194a576040519150601f19603f3d011682016040523d82523d6000602084013e61194f565b606091505b506000815103611994576040517f08c379a000000000000000000000000000000000000000000000000000000000815260040161198b90612f41565b60405180910390fd5b805181602001fd5b63150b7a0260e01b7bffffffffffffffffffffffffffffffffffffffffffffffffffffffff1916817bffffffffffffffffffffffffffffffffffffffffffffffffffffffff1916149150506119f1565b600190505b949350505050565b606060006001611a0884611d07565b01905060008167ffffffffffffffff811115611a2757611a266121ba565b5b6040519080825280601f01601f191660200182016040528015611a595781602001600182028036833780820191505090505b509050600082602001820190505b600115611abc578080600190039150507f3031323334353637383961626364656600000000000000000000000000000000600a86061a8153600a8581611ab057611aaf613044565b5b04945060008503611a67575b819350505050919050565b600073ffffffffffffffffffffffffffffffffffffffff168273ffffffffffffffffffffffffffffffffffffffff1603611b36576040517f08c379a0000000000000000000000000000000000000000000000000000000008152600401611b2d906130bf565b60405180910390fd5b611b3f816117ca565b15611b7f576040517f08c379a0000000000000000000000000000000000000000000000000000000008152600401611b769061312b565b60405180910390fd5b611b8d60008383600161180b565b611b96816117ca565b15611bd6576040517f08c379a0000000000000000000000000000000000000000000000000000000008152600401611bcd9061312b565b60405180910390fd5b6001600360008473ffffffffffffffffffffffffffffffffffffffff1673ffffffffffffffffffffffffffffffffffffffff16815260200190815260200160002060008282540192505081905550816002600083815260200190815260200160002060006101000a81548173ffffffffffffffffffffffffffffffffffffffff021916908373ffffffffffffffffffffffffffffffffffffffff160217905550808273ffffffffffffffffffffffffffffffffffffffff16600073ffffffffffffffffffffffffffffffffffffffff167fddf252ad1be2c89b69c2b068fc378daa952ba7f163c4a11628f55a4df523b3ef60405160405180910390a4611ce0600083836001611811565b5050565b6000808273ffffffffffffffffffffffffffffffffffffffff163b119050919050565b600080600090507a184f03e93ff9f4daa797ed6e38ed64bf6a1f0100000000000000008310611d65577a184f03e93ff9f4daa797ed6e38ed64bf6a1f0100000000000000008381611d5b57611d5a613044565b5b0492506040810190505b6d04ee2d6d415b85acef81000000008310611da2576d04ee2d6d415b85acef81000000008381611d9857611d97613044565b5b0492506020810190505b662386f26fc100008310611dd157662386f26fc100008381611dc757611dc6613044565b5b0492506010810190505b6305f5e1008310611dfa576305f5e1008381611df057611def613044565b5b0492506008810190505b6127108310611e1f576127108381611e1557611e14613044565b5b0492506004810190505b60648310611e425760648381611e3857611e37613044565b5b0492506002810190505b600a8310611e51576001810190505b80915050919050565b6000604051905090565b600080fd5b600080fd5b60007fffffffff0000000000000000000000000000000000000000000000000000000082169050919050565b611ea381611e6e565b8114611eae57600080fd5b50565b600081359050611ec081611e9a565b92915050565b600060208284031215611edc57611edb611e64565b5b6000611eea84828501611eb1565b91505092915050565b60008115159050919050565b611f0881611ef3565b82525050565b6000602082019050611f236000830184611eff565b92915050565b600081519050919050565b600082825260208201905092915050565b60005b83811015611f63578082015181840152602081019050611f48565b60008484015250505050565b6000601f19601f8301169050919050565b6000611f8b82611f29565b611f958185611f34565b9350611fa5818560208601611f45565b611fae81611f6f565b840191505092915050565b60006020820190508181036000830152611fd38184611f80565b905092915050565b6000819050919050565b611fee81611fdb565b8114611ff957600080fd5b50565b60008135905061200b81611fe5565b92915050565b60006020828403121561202757612026611e64565b5b600061203584828501611ffc565b91505092915050565b600073ffffffffffffffffffffffffffffffffffffffff82169050919050565b60006120698261203e565b9050919050565b6120798161205e565b82525050565b60006020820190506120946000830184612070565b92915050565b6120a38161205e565b81146120ae57600080fd5b50565b6000813590506120c08161209a565b92915050565b600080604083850312156120dd576120dc611e64565b5b60006120eb858286016120b1565b92505060206120fc85828601611ffc565b9150509250929050565b60008060006060848603121561211f5761211e611e64565b5b600061212d868287016120b1565b935050602061213e868287016120b1565b925050604061214f86828701611ffc565b9150509250925092565b61216281611fdb565b82525050565b600060208201905061217d6000830184612159565b92915050565b60006020828403121561219957612198611e64565b5b60006121a7848285016120b1565b91505092915050565b600080fd5b600080fd5b7f4e487b7100000000000000000000000000000000000000000000000000000000600052604160045260246000fd5b6121f282611f6f565b810181811067ffffffffffffffff82111715612211576122106121ba565b5b80604052505050565b6000612224611e5a565b905061223082826121e9565b919050565b600067ffffffffffffffff8211156122505761224f6121ba565b5b61225982611f6f565b9050602081019050919050565b82818337600083830152505050565b600061228861228384612235565b61221a565b9050828152602081018484840111156122a4576122a36121b5565b5b6122af848285612266565b509392505050565b600082601f8301126122cc576122cb6121b0565b5b81356122dc848260208601612275565b91505092915050565b6000602082840312156122fb576122fa611e64565b5b600082013567ffffffffffffffff81111561231957612318611e69565b5b612325848285016122b7565b91505092915050565b61233781611ef3565b811461234257600080fd5b50565b6000813590506123548161232e565b92915050565b6000806040838503121561237157612370611e64565b5b600061237f858286016120b1565b925050602061239085828601612345565b9150509250929050565b600067ffffffffffffffff8211156123b5576123b46121ba565b5b6123be82611f6f565b9050602081019050919050565b60006123de6123d98461239a565b61221a565b9050828152602081018484840111156123fa576123f96121b5565b5b612405848285612266565b509392505050565b600082601f830112612422576124216121b0565b5b81356124328482602086016123cb565b91505092915050565b6000806000806080858703121561245557612454611e64565b5b6000612463878288016120b1565b9450506020612474878288016120b1565b935050604061248587828801611ffc565b925050606085013567ffffffffffffffff8111156124a6576124a5611e69565b5b6124b28782880161240d565b91505092959194509250565b600080604083850312156124d5576124d4611e64565b5b60006124e3858286016120b1565b925050602083013567ffffffffffffffff81111561250457612503611e69565b5b612510858286016122b7565b9150509250929050565b6000806040838503121561253157612530611e64565b5b600061253f858286016120b1565b9250506020612550858286016120b1565b9150509250929050565b7f4e487b7100000000000000000000000000000000000000000000000000000000600052602260045260246000fd5b600060028204905060018216806125a157607f821691505b6020821081036125b4576125b361255a565b5b50919050565b7f4552433732313a20617070726f76616c20746f2063757272656e74206f776e6560008201527f7200000000000000000000000000000000000000000000000000000000000000602082015250565b6000612616602183611f34565b9150612621826125ba565b604082019050919050565b6000602082019050818103600083015261264581612609565b9050919050565b7f4552433732313a20617070726f76652063616c6c6572206973206e6f7420746f60008201527f6b656e206f776e6572206f7220617070726f76656420666f7220616c6c000000602082015250565b60006126a8603d83611f34565b91506126b38261264c565b604082019050919050565b600060208201905081810360008301526126d78161269b565b9050919050565b7f4552433732313a2063616c6c6572206973206e6f7420746f6b656e206f776e6560008201527f72206f7220617070726f76656400000000000000000000000000000000000000602082015250565b600061273a602d83611f34565b9150612745826126de565b604082019050919050565b600060208201905081810360008301526127698161272d565b9050919050565b7f4552433732313a20696e76616c696420746f6b656e2049440000000000000000600082015250565b60006127a6601883611f34565b91506127b182612770565b602082019050919050565b600060208201905081810360008301526127d581612799565b9050919050565b7f4552433732313a2061646472657373207a65726f206973206e6f74206120766160008201527f6c6964206f776e65720000000000000000000000000000000000000000000000602082015250565b6000612838602983611f34565b9150612843826127dc565b604082019050919050565b600060208201905081810360008301526128678161282b565b9050919050565b7f4e487b7100000000000000000000000000000000000000000000000000000000600052601160045260246000fd5b60006128a882611fdb565b91506128b383611fdb565b92508282019050808211156128cb576128ca61286e565b5b92915050565b600081905092915050565b60006128e782611f29565b6128f181856128d1565b9350612901818560208601611f45565b80840191505092915050565b600061291982856128dc565b915061292582846128dc565b91508190509392505050565b7f4f776e61626c653a206e6577206f776e657220697320746865207a65726f206160008201527f6464726573730000000000000000000000000000000000000000000000000000602082015250565b600061298d602683611f34565b915061299882612931565b604082019050919050565b600060208201905081810360008301526129bc81612980565b9050919050565b7f4552433732313a207472616e736665722066726f6d20696e636f72726563742060008201527f6f776e6572000000000000000000000000000000000000000000000000000000602082015250565b6000612a1f602583611f34565b9150612a2a826129c3565b604082019050919050565b60006020820190508181036000830152612a4e81612a12565b9050919050565b7f4552433732313a207472616e7366657220746f20746865207a65726f2061646460008201527f7265737300000000000000000000000000000000000000000000000000000000602082015250565b6000612ab1602483611f34565b9150612abc82612a55565b604082019050919050565b60006020820190508181036000830152612ae081612aa4565b9050919050565b7f4f776e61626c653a2063616c6c6572206973206e6f7420746865206f776e6572600082015250565b6000612b1d602083611f34565b9150612b2882612ae7565b602082019050919050565b60006020820190508181036000830152612b4c81612b10565b9050919050565b7f45524337323155524953746f726167653a2055524920736574206f66206e6f6e60008201527f6578697374656e7420746f6b656e000000000000000000000000000000000000602082015250565b6000612baf602e83611f34565b9150612bba82612b53565b604082019050919050565b60006020820190508181036000830152612bde81612ba2565b9050919050565b60008190508160005260206000209050919050565b60006020601f8301049050919050565b600082821b905092915050565b600060088302612c477fffffffffffffffffffffffffffffffffffffffffffffffffffffffffffffffff82612c0a565b612c518683612c0a565b95508019841693508086168417925050509392505050565b6000819050919050565b6000612c8e612c89612c8484611fdb565b612c69565b611fdb565b9050919050565b6000819050919050565b612ca883612c73565b612cbc612cb482612c95565b848454612c17565b825550505050565b600090565b612cd1612cc4565b612cdc818484612c9f565b505050565b5b81811015612d0057612cf5600082612cc9565b600181019050612ce2565b5050565b601f821115612d4557612d1681612be5565b612d1f84612bfa565b81016020851015612d2e578190505b612d42612d3a85612bfa565b830182612ce1565b50505b505050565b600082821c905092915050565b6000612d6860001984600802612d4a565b1980831691505092915050565b6000612d818383612d57565b9150826002028217905092915050565b612d9a82611f29565b67ffffffffffffffff811115612db357612db26121ba565b5b612dbd8254612589565b612dc8828285612d04565b600060209050601f831160018114612dfb5760008415612de9578287015190505b612df38582612d75565b865550612e5b565b601f198416612e0986612be5565b60005b82811015612e3157848901518255600182019150602085019450602081019050612e0c565b86831015612e4e5784890151612e4a601f891682612d57565b8355505b6001600288020188555050505b505050505050565b7f4552433732313a20617070726f766520746f2063616c6c657200000000000000600082015250565b6000612e99601983611f34565b9150612ea482612e63565b602082019050919050565b60006020820190508181036000830152612ec881612e8c565b9050919050565b7f4552433732313a207472616e7366657220746f206e6f6e20455243373231526560008201527f63656976657220696d706c656d656e7465720000000000000000000000000000602082015250565b6000612f2b603283611f34565b9150612f3682612ecf565b604082019050919050565b60006020820190508181036000830152612f5a81612f1e565b9050919050565b600081519050919050565b600082825260208201905092915050565b6000612f8882612f61565b612f928185612f6c565b9350612fa2818560208601611f45565b612fab81611f6f565b840191505092915050565b6000608082019050612fcb6000830187612070565b612fd86020830186612070565b612fe56040830185612159565b8181036060830152612ff78184612f7d565b905095945050505050565b60008151905061301181611e9a565b92915050565b60006020828403121561302d5761302c611e64565b5b600061303b84828501613002565b91505092915050565b7f4e487b7100000000000000000000000000000000000000000000000000000000600052601260045260246000fd5b7f4552433732313a206d696e7420746f20746865207a65726f2061646472657373600082015250565b60006130a9602083611f34565b91506130b482613073565b602082019050919050565b600060208201905081810360008301526130d88161309c565b9050919050565b7f4552433732313a20746f6b656e20616c7265616479206d696e74656400000000600082015250565b6000613115601c83611f34565b9150613120826130df565b602082019050919050565b6000602082019050818103600083015261314481613108565b905091905056fea2646970667358221220788e3f8977f0112f2a27f7b9193d1c71ba9297a4fe05738cebb5818dacd7a2ed64736f6c634300081c0033",
  "linkReferences": {},
  "deployedLinkReferences": {}
}