{
  "_format": "hh-sol-artifact-1",
  "contractName": "EventTicketNFT",
  "sourceName": "contracts/EventTicketNFT.sol",
  "abi": [
    {
      "inputs": [
        {
          "internalType": "address",
          "name": "initialOwner",
          "type": "address"
        }
      ],
      "stateMutability": "nonpayable",
      "type": "constructor"
    },
    {
      "anonymous": false,
      "inputs": [
        {
          "indexed": true,
          "internalType": "address",
          "name": "owner",
          "type": "address"
        },
        {
          "indexed": true,
          "internalType": "address",
          "name": "approved",
          "type": "address"
        },
        {
          "indexed": true,
          "internalType": "uint256",
          "name": "tokenId",
          "type": "uint256"
        }
      ],
      "name": "Approval",
      "type": "event"
    },
    {
      "anonymous": false,
      "inputs": [
        {
          "indexed": true,
          "internalType": "address",
          "name": "owner",
          "type": "address"
        },
        {
          "indexed": true,
          "internalType": "address",
          "name": "operator",
          "type": "address"
        },
        {
          "indexed": false,
          "internalType": "bool",
          "name": "approved",
          "type": "bool"
        }
      ],
      "name": "ApprovalForAll",
      "type": "event"
    },
    {
      "anonymous": false,
      "inputs": [
        {
          "indexed": false,
          "internalType": "uint256",
          "name": "_fromTokenId",
          "type": "uint256"
        },
        {
          "indexed": false,
          "internalType": "uint256",
          "name": "_toTokenId",
          "type": "uint256"
        }
      ],
      "name": "BatchMetadataUpdate",
      "type": "event"
    },
    {
      "anonymous": false,
      "inputs": [
        {
          "indexed": false,
          "internalType": "uint256",
          "name": "_tokenId",
          "type": "uint256"
        }
      ],
      "name": "MetadataUpdate",
      "type": "event"
    },
    {
      "anonymous": false,
      "inputs": [
        {
          "indexed": true,
          "internalType": "address",
          "name": "previousOwner",
          "type": "address"
        },
        {
          "indexed": true,
          "internalType": "address",
          "name": "newOwner",
          "type": "address"
        }
      ],
      "name": "OwnershipTransferred",
      "type": "event"
    },
    {
      "anonymous": false,
      "inputs": [
        {
          "indexed": true,
          "internalType": "address",
          "name": "to",
          "type": "address"
        },
        {
          "indexed": true,
          "internalType": "uint256",
          "name": "tokenId",
          "type": "uint256"
        },
        {
          "indexed": false,
          "internalType": "string",
          "name": "tokenURI",
          "type": "string"
        }
      ],
      "name": "TicketMinted",
      "type": "event"
    },
    {
      "anonymous": false,
      "inputs": [
        {
          "indexed": true,
          "internalType": "address",
          "name": "from",
          "type": "address"
        },
        {
          "indexed": true,
          "internalType": "address",
          "name": "to",
          "type": "address"
        },
        {
          "indexed": true,
          "internalType": "uint256",
          "name": "tokenId",
          "type": "uint256"
        }
      ],
      "name": "Transfer",
      "type": "event"
    },
    {
      "inputs": [
        {
          "internalType": "address",
          "name": "to",
          "type": "address"
        },
        {
          "internalType": "uint256",
          "name": "tokenId",
          "type": "uint256"
        }
      ],
      "name": "approve",
      "outputs": [],
      "stateMutability": "nonpayable",
      "type": "function"
    },
    {
      "inputs": [
        {
          "internalType": "address",
          "name": "owner",
          "type": "address"
        }
      ],
      "name": "balanceOf",
      "outputs": [
        {
          "internalType": "uint256",
          "name": "",
          "type": "uint256"
        }
      ],
      "stateMutability": "view",
      "type": "function"
    },
    {
      "inputs": [
        {
          "internalType": "uint256",
          "name": "tokenId",
          "type": "uint256"
        }
      ],
      "name": "getApproved",
      "outputs": [
        {
          "internalType": "address",
          "name": "",
          "type": "address"
        }
      ],
      "stateMutability": "view",
      "type": "function"
    },
    {
      "inputs": [
        {
          "internalType": "address",
          "name": "owner",
          "type": "address"
        },
        {
          "internalType": "address",
          "name": "operator",
          "type": "address"
        }
      ],
      "name": "isApprovedForAll",
      "outputs": [
        {
          "internalType": "bool",
          "name": "",
          "type": "bool"
        }
      ],
      "stateMutability": "view",
      "type": "function"
    },
    {
      "inputs": [
        {
          "internalType": "string",
          "name": "tokenURI",
          "type": "string"
        }
      ],
      "name": "mintTicket",
      "outputs": [
        {
          "internalType": "uint256",
          "name": "",
          "type": "uint256"
        }
      ],
      "stateMutability": "nonpayable",
      "type": "function"
    },
    {
      "inputs": [],
      "name": "name",
      "outputs": [
        {
          "internalType": "string",
          "name": "",
          "type": "string"
        }
      ],
      "stateMutability": "view",
      "type": "function"
    },
    {
      "inputs": [],
      "name": "owner",
      "outputs": [
        {
          "internalType": "address",
          "name": "",
          "type": "address"
        }
      ],
      "stateMutability": "view",
      "type": "function"
    },
    {
      "inputs": [
        {
          "internalType": "uint256",
          "name": "tokenId",
          "type": "uint256"
        }
      ],
      "name": "ownerOf",
      "outputs": [
        {
          "internalType": "address",
          "name": "",
          "type": "address"
        }
      ],
      "stateMutability": "view",
      "type": "function"
    },
    {
      "inputs": [],
      "name": "renounceOwnership",
      "outputs": [],
      "stateMutability": "nonpayable",
      "type": "function"
    },
    {
      "inputs": [
        {
          "internalType": "address",
          "name": "to",
          "type": "address"
        },
        {
          "internalType": "string",
          "name": "uri",
          "type": "string"
        }
      ],
      "name": "safeMint",
      "outputs": [],
      "stateMutability": "nonpayable",
      "type": "function"
    },
    {
      "inputs": [
        {
          "internalType": "address",
          "name": "from",
          "type": "address"
        },
        {
          "internalType": "address",
          "name": "to",
          "type": "address"
        },
        {
          "internalType": "uint256",
          "name": "tokenId",
          "type": "uint256"
        }
      ],
      "name": "safeTransferFrom",
      "outputs": [],
      "stateMutability": "nonpayable",
      "type": "function"
    },
    {
      "inputs": [
        {
          "internalType": "address",
          "name": "from",
          "type": "address"
        },
        {
          "internalType": "address",
          "name": "to",
          "type": "address"
        },
        {
          "internalType": "uint256",
          "name": "tokenId",
          "type": "uint256"
        },
        {
          "internalType": "bytes",
          "name": "data",
          "type": "bytes"
        }
      ],
      "name": "safeTransferFrom",
      "outputs": [],
      "stateMutability": "nonpayable",
      "type": "function"
    },
    {
      "inputs": [
        {
          "internalType": "address",
          "name": "operator",
          "type": "address"
        },
        {
          "internalType": "bool",
          "name": "approved",
          "type": "bool"
        }
      ],
      "name": "setApprovalForAll",
      "outputs": [],
      "stateMutability": "nonpayable",
      "type": "function"
    },
    {
      "inputs": [
        {
          "internalType": "bytes4",
          "name": "interfaceId",
          "type": "bytes4"
        }
      ],
      "name": "supportsInterface",
      "outputs": [
        {
          "internalType": "bool",
          "name": "",
          "type": "bool"
        }
      ],
      "stateMutability": "view",
      "type": "function"
    },
    {
      "inputs": [],
      "name": "symbol",
      "outputs": [
        {
          "internalType": "string",
          "name": "",
          "type": "string"
        }
      ],
      "stateMutability": "view",
      "type": "function"
    },
    {
      "inputs": [],
      "name": "tokenCounter",
      "outputs": [
        {
          "internalType": "uint256",
          "name": "",
          "type": "uint256"
        }
      ],
      "stateMutability": "view",
      "type": "function"
    },
    {
      "inputs": [
        {
          "internalType": "uint256",
          "name": "tokenId",
          "type": "uint256"
        }
      ],
      "name": "tokenURI",
      "outputs": [
        {
          "internalType": "string",
          "name": "",
          "type": "string"
        }
      ],
      "stateMutability": "view",
      "type": "function"
    },
    {
      "inputs": [
        {
          "internalType": "address",
          "name": "from",
          "type": "address"
        },
        {
          "internalType": "address",
          "name": "to",
          "type": "address"
        },
        {
          "internalType": "uint256",
          "name": "tokenId",
          "type": "uint256"
        }
      ],
      "name": "transferFrom",
      "outputs": [],
      "stateMutability": "nonpayable",
      "type": "function"
    },
    {
      "inputs": [
        {
          "internalType": "address",
          "name": "newOwner",
          "type": "address"
        }
      ],
      "name": "transferOwnership",
      "outputs": [],
      "stateMutability": "nonpayable",
      "type": "function"
    }
  ],
  "bytecode": "0x608060405234801561001057600080fd5b5060405161382c38038061382c8339818101604052810190610032919061036d565b6040518060400160405280600c81526020017f4576656e74205469636b657400000000000000000000000000000000000000008152506040518060400160405280600481526020017f455449580000000000000000000000000000000000000000000000000000000081525081600090816100ad91906105ea565b5080600190816100bd91906105ea565b5050506100dc6100d16100f960201b60201c565b61010160201b60201c565b6100eb816101c760201b60201c565b6000600981905550506107cb565b600033905090565b6000600760009054906101000a900473ffffffffffffffffffffffffffffffffffffffff16905081600760006101000a81548173ffffffffffffffffffffffffffffffffffffffff021916908373ffffffffffffffffffffffffffffffffffffffff1602179055508173ffffffffffffffffffffffffffffffffffffffff168173ffffffffffffffffffffffffffffffffffffffff167f8be0079c531659141344cd1fd0a4f28419497f9722a3daafe3b4186f6b6457e060405160405180910390a35050565b6101d561025660201b60201c565b600073ffffffffffffffffffffffffffffffffffffffff168173ffffffffffffffffffffffffffffffffffffffff1603610244576040517f08c379a000000000000000000000000000000000000000000000000000000000815260040161023b9061073f565b60405180910390fd5b6102538161010160201b60201c565b50565b6102646100f960201b60201c565b73ffffffffffffffffffffffffffffffffffffffff166102886102e060201b60201c565b73ffffffffffffffffffffffffffffffffffffffff16146102de576040517f08c379a00000000000000000000000000000000000000000000000000000000081526004016102d5906107ab565b60405180910390fd5b565b6000600760009054906101000a900473ffffffffffffffffffffffffffffffffffffffff16905090565b600080fd5b600073ffffffffffffffffffffffffffffffffffffffff82169050919050565b600061033a8261030f565b9050919050565b61034a8161032f565b811461035557600080fd5b50565b60008151905061036781610341565b92915050565b6000602082840312156103835761038261030a565b5b600061039184828501610358565b91505092915050565b600081519050919050565b7f4e487b7100000000000000000000000000000000000000000000000000000000600052604160045260246000fd5b7f4e487b7100000000000000000000000000000000000000000000000000000000600052602260045260246000fd5b6000600282049050600182168061041b57607f821691505b60208210810361042e5761042d6103d4565b5b50919050565b60008190508160005260206000209050919050565b60006020601f8301049050919050565b600082821b905092915050565b6000600883026104967fffffffffffffffffffffffffffffffffffffffffffffffffffffffffffffffff82610459565b6104a08683610459565b95508019841693508086168417925050509392505050565b6000819050919050565b6000819050919050565b60006104e76104e26104dd846104b8565b6104c2565b6104b8565b9050919050565b6000819050919050565b610501836104cc565b61051561050d826104ee565b848454610466565b825550505050565b600090565b61052a61051d565b6105358184846104f8565b505050565b5b818110156105595761054e600082610522565b60018101905061053b565b5050565b601f82111561059e5761056f81610434565b61057884610449565b81016020851015610587578190505b61059b61059385610449565b83018261053a565b50505b505050565b600082821c905092915050565b60006105c1600019846008026105a3565b1980831691505092915050565b60006105da83836105b0565b9150826002028217905092915050565b6105f38261039a565b67ffffffffffffffff81111561060c5761060b6103a5565b5b6106168254610403565b61062182828561055d565b600060209050601f8311600181146106545760008415610642578287015190505b61064c85826105ce565b8655506106b4565b601f19841661066286610434565b60005b8281101561068a57848901518255600182019150602085019450602081019050610665565b868310156106a757848901516106a3601f8916826105b0565b8355505b6001600288020188555050505b505050505050565b600082825260208201905092915050565b7f4f776e61626c653a206e6577206f776e657220697320746865207a65726f206160008201527f6464726573730000000000000000000000000000000000000000000000000000602082015250565b60006107296026836106bc565b9150610734826106cd565b604082019050919050565b600060208201905081810360008301526107588161071c565b9050919050565b7f4f776e61626c653a2063616c6c6572206973206e6f7420746865206f776e6572600082015250565b60006107956020836106bc565b91506107a08261075f565b602082019050919050565b600060208201905081810360008301526107c481610788565b9050919050565b613052806107da6000396000f3fe608060405234801561001057600080fd5b50600436106101215760003560e01c80638da5cb5b116100ad578063c87b56dd11610071578063c87b56dd14610306578063d082e38114610336578063d204c45e14610354578063e985e9c514610370578063f2fde38b146103a057610121565b80638da5cb5b1461026257806395d89b411461028057806396651ecf1461029e578063a22cb465146102ce578063b88d4fde146102ea57610121565b806323b872dd116100f457806323b872dd146101c057806342842e0e146101dc5780636352211e146101f857806370a0823114610228578063715018a61461025857610121565b806301ffc9a71461012657806306fdde0314610156578063081812fc14610174578063095ea7b3146101a4575b600080fd5b610140600480360381019061013b9190611d97565b6103bc565b60405161014d9190611ddf565b60405180910390f35b61015e61041d565b60405161016b9190611e8a565b60405180910390f35b61018e60048036038101906101899190611ee2565b6104af565b60405161019b9190611f50565b60405180910390f35b6101be60048036038101906101b99190611f97565b6104f5565b005b6101da60048036038101906101d59190611fd7565b61060c565b005b6101f660048036038101906101f19190611fd7565b61066c565b005b610212600480360381019061020d9190611ee2565b61068c565b60405161021f9190611f50565b60405180910390f35b610242600480360381019061023d919061202a565b610712565b60405161024f9190612066565b60405180910390f35b6102606107c9565b005b61026a6107dd565b6040516102779190611f50565b60405180910390f35b610288610807565b6040516102959190611e8a565b60405180910390f35b6102b860048036038101906102b391906121b6565b610899565b6040516102c59190612066565b60405180910390f35b6102e860048036038101906102e3919061222b565b6108d8565b005b61030460048036038101906102ff919061230c565b6108ee565b005b610320600480360381019061031b9190611ee2565b610950565b60405161032d9190611e8a565b60405180910390f35b61033e610a62565b60405161034b9190612066565b60405180910390f35b61036e6004803603810190610369919061238f565b610a68565b005b61038a600480360381019061038591906123eb565b610af0565b6040516103979190611ddf565b60405180910390f35b6103ba60048036038101906103b5919061202a565b610b84565b005b6000634906490660e01b7bffffffffffffffffffffffffffffffffffffffffffffffffffffffff1916827bffffffffffffffffffffffffffffffffffffffffffffffffffffffff19161480610416575061041582610c07565b5b9050919050565b60606000805461042c9061245a565b80601f01602080910402602001604051908101604052809291908181526020018280546104589061245a565b80156104a55780601f1061047a576101008083540402835291602001916104a5565b820191906000526020600020905b81548152906001019060200180831161048857829003601f168201915b5050505050905090565b60006104ba82610ce9565b6004600083815260200190815260200160002060009054906101000a900473ffffffffffffffffffffffffffffffffffffffff169050919050565b60006105008261068c565b90508073ffffffffffffffffffffffffffffffffffffffff168373ffffffffffffffffffffffffffffffffffffffff1603610570576040517f08c379a0000000000000000000000000000000000000000000000000000000008152600401610567906124fd565b60405180910390fd5b8073ffffffffffffffffffffffffffffffffffffffff1661058f610d34565b73ffffffffffffffffffffffffffffffffffffffff1614806105be57506105bd816105b8610d34565b610af0565b5b6105fd576040517f08c379a00000000000000000000000000000000000000000000000000000000081526004016105f49061258f565b60405180910390fd5b6106078383610d3c565b505050565b61061d610617610d34565b82610df5565b61065c576040517f08c379a000000000000000000000000000000000000000000000000000000000815260040161065390612621565b60405180910390fd5b610667838383610e8a565b505050565b610687838383604051806020016040528060008152506108ee565b505050565b60008061069883611183565b9050600073ffffffffffffffffffffffffffffffffffffffff168173ffffffffffffffffffffffffffffffffffffffff1603610709576040517f08c379a00000000000000000000000000000000000000000000000000000000081526004016107009061268d565b60405180910390fd5b80915050919050565b60008073ffffffffffffffffffffffffffffffffffffffff168273ffffffffffffffffffffffffffffffffffffffff1603610782576040517f08c379a00000000000000000000000000000000000000000000000000000000081526004016107799061271f565b60405180910390fd5b600360008373ffffffffffffffffffffffffffffffffffffffff1673ffffffffffffffffffffffffffffffffffffffff168152602001908152602001600020549050919050565b6107d16111c0565b6107db600061123e565b565b6000600760009054906101000a900473ffffffffffffffffffffffffffffffffffffffff16905090565b6060600180546108169061245a565b80601f01602080910402602001604051908101604052809291908181526020018280546108429061245a565b801561088f5780601f106108645761010080835404028352916020019161088f565b820191906000526020600020905b81548152906001019060200180831161087257829003601f168201915b5050505050905090565b60008060095490506108ab3382611304565b6108b58184611322565b6001600960008282546108c8919061276e565b9250508190555080915050919050565b6108ea6108e3610d34565b83836113c6565b5050565b6108ff6108f9610d34565b83610df5565b61093e576040517f08c379a000000000000000000000000000000000000000000000000000000000815260040161093590612621565b60405180910390fd5b61094a84848484611532565b50505050565b606061095b82610ce9565b600060066000848152602001908152602001600020805461097b9061245a565b80601f01602080910402602001604051908101604052809291908181526020018280546109a79061245a565b80156109f45780601f106109c9576101008083540402835291602001916109f4565b820191906000526020600020905b8154815290600101906020018083116109d757829003601f168201915b505050505090506000610a0561158e565b90506000815103610a1a578192505050610a5d565b600082511115610a4f578082604051602001610a379291906127de565b60405160208183030381529060405292505050610a5d565b610a58846115a5565b925050505b919050565b60095481565b610a706111c0565b6000610a7c600861160d565b9050610a88600861161b565b610a928382611304565b610a9c8183611322565b808373ffffffffffffffffffffffffffffffffffffffff167ff16f1e8b680ea7f1e8a1f849eb82762cba60ddcef854d36909e3173483281c8c84604051610ae39190611e8a565b60405180910390a3505050565b6000600560008473ffffffffffffffffffffffffffffffffffffffff1673ffffffffffffffffffffffffffffffffffffffff16815260200190815260200160002060008373ffffffffffffffffffffffffffffffffffffffff1673ffffffffffffffffffffffffffffffffffffffff16815260200190815260200160002060009054906101000a900460ff16905092915050565b610b8c6111c0565b600073ffffffffffffffffffffffffffffffffffffffff168173ffffffffffffffffffffffffffffffffffffffff1603610bfb576040517f08c379a0000000000000000000000000000000000000000000000000000000008152600401610bf290612874565b60405180910390fd5b610c048161123e565b50565b60007f80ac58cd000000000000000000000000000000000000000000000000000000007bffffffffffffffffffffffffffffffffffffffffffffffffffffffff1916827bffffffffffffffffffffffffffffffffffffffffffffffffffffffff19161480610cd257507f5b5e139f000000000000000000000000000000000000000000000000000000007bffffffffffffffffffffffffffffffffffffffffffffffffffffffff1916827bffffffffffffffffffffffffffffffffffffffffffffffffffffffff1916145b80610ce25750610ce182611631565b5b9050919050565b610cf28161169b565b610d31576040517f08c379a0000000000000000000000000000000000000000000000000000000008152600401610d289061268d565b60405180910390fd5b50565b600033905090565b816004600083815260200190815260200160002060006101000a81548173ffffffffffffffffffffffffffffffffffffffff021916908373ffffffffffffffffffffffffffffffffffffffff160217905550808273ffffffffffffffffffffffffffffffffffffffff16610daf8361068c565b73ffffffffffffffffffffffffffffffffffffffff167f8c5be1e5ebec7d5bd14f71427d1e84f3dd0314c0f7b2291e5b200ac8c7c3b92560405160405180910390a45050565b600080610e018361068c565b90508073ffffffffffffffffffffffffffffffffffffffff168473ffffffffffffffffffffffffffffffffffffffff161480610e435750610e428185610af0565b5b80610e8157508373ffffffffffffffffffffffffffffffffffffffff16610e69846104af565b73ffffffffffffffffffffffffffffffffffffffff16145b91505092915050565b8273ffffffffffffffffffffffffffffffffffffffff16610eaa8261068c565b73ffffffffffffffffffffffffffffffffffffffff1614610f00576040517f08c379a0000000000000000000000000000000000000000000000000000000008152600401610ef790612906565b60405180910390fd5b600073ffffffffffffffffffffffffffffffffffffffff168273ffffffffffffffffffffffffffffffffffffffff1603610f6f576040517f08c379a0000000000000000000000000000000000000000000000000000000008152600401610f6690612998565b60405180910390fd5b610f7c83838360016116dc565b8273ffffffffffffffffffffffffffffffffffffffff16610f9c8261068c565b73ffffffffffffffffffffffffffffffffffffffff1614610ff2576040517f08c379a0000000000000000000000000000000000000000000000000000000008152600401610fe990612906565b60405180910390fd5b6004600082815260200190815260200160002060006101000a81549073ffffffffffffffffffffffffffffffffffffffff02191690556001600360008573ffffffffffffffffffffffffffffffffffffffff1673ffffffffffffffffffffffffffffffffffffffff168152602001908152602001600020600082825403925050819055506001600360008473ffffffffffffffffffffffffffffffffffffffff1673ffffffffffffffffffffffffffffffffffffffff16815260200190815260200160002060008282540192505081905550816002600083815260200190815260200160002060006101000a81548173ffffffffffffffffffffffffffffffffffffffff021916908373ffffffffffffffffffffffffffffffffffffffff160217905550808273ffffffffffffffffffffffffffffffffffffffff168473ffffffffffffffffffffffffffffffffffffffff167fddf252ad1be2c89b69c2b068fc378daa952ba7f163c4a11628f55a4df523b3ef60405160405180910390a461117e83838360016116e2565b505050565b60006002600083815260200190815260200160002060009054906101000a900473ffffffffffffffffffffffffffffffffffffffff169050919050565b6111c8610d34565b73ffffffffffffffffffffffffffffffffffffffff166111e66107dd565b73ffffffffffffffffffffffffffffffffffffffff161461123c576040517f08c379a000000000000000000000000000000000000000000000000000000000815260040161123390612a04565b60405180910390fd5b565b6000600760009054906101000a900473ffffffffffffffffffffffffffffffffffffffff16905081600760006101000a81548173ffffffffffffffffffffffffffffffffffffffff021916908373ffffffffffffffffffffffffffffffffffffffff1602179055508173ffffffffffffffffffffffffffffffffffffffff168173ffffffffffffffffffffffffffffffffffffffff167f8be0079c531659141344cd1fd0a4f28419497f9722a3daafe3b4186f6b6457e060405160405180910390a35050565b61131e8282604051806020016040528060008152506116e8565b5050565b61132b8261169b565b61136a576040517f08c379a000000000000000000000000000000000000000000000000000000000815260040161136190612a96565b60405180910390fd5b8060066000848152602001908152602001600020908161138a9190612c62565b507ff8e1a15aba9398e019f0b49df1a4fde98ee17ae345cb5f6b5e2c27f5033e8ce7826040516113ba9190612066565b60405180910390a15050565b8173ffffffffffffffffffffffffffffffffffffffff168373ffffffffffffffffffffffffffffffffffffffff1603611434576040517f08c379a000000000000000000000000000000000000000000000000000000000815260040161142b90612d80565b60405180910390fd5b80600560008573ffffffffffffffffffffffffffffffffffffffff1673ffffffffffffffffffffffffffffffffffffffff16815260200190815260200160002060008473ffffffffffffffffffffffffffffffffffffffff1673ffffffffffffffffffffffffffffffffffffffff16815260200190815260200160002060006101000a81548160ff0219169083151502179055508173ffffffffffffffffffffffffffffffffffffffff168373ffffffffffffffffffffffffffffffffffffffff167f17307eab39ab6107e8899845ad3d59bd9653f200f220920489ca2b5937696c31836040516115259190611ddf565b60405180910390a3505050565b61153d848484610e8a565b61154984848484611743565b611588576040517f08c379a000000000000000000000000000000000000000000000000000000000815260040161157f90612e12565b60405180910390fd5b50505050565b606060405180602001604052806000815250905090565b60606115b082610ce9565b60006115ba61158e565b905060008151116115da5760405180602001604052806000815250611605565b806115e4846118ca565b6040516020016115f59291906127de565b6040516020818303038152906040525b915050919050565b600081600001549050919050565b6001816000016000828254019250508190555050565b60007f01ffc9a7000000000000000000000000000000000000000000000000000000007bffffffffffffffffffffffffffffffffffffffffffffffffffffffff1916827bffffffffffffffffffffffffffffffffffffffffffffffffffffffff1916149050919050565b60008073ffffffffffffffffffffffffffffffffffffffff166116bd83611183565b73ffffffffffffffffffffffffffffffffffffffff1614159050919050565b50505050565b50505050565b6116f28383611998565b6116ff6000848484611743565b61173e576040517f08c379a000000000000000000000000000000000000000000000000000000000815260040161173590612e12565b60405180910390fd5b505050565b60006117648473ffffffffffffffffffffffffffffffffffffffff16611bb5565b156118bd578373ffffffffffffffffffffffffffffffffffffffff1663150b7a0261178d610d34565b8786866040518563ffffffff1660e01b81526004016117af9493929190612e87565b6020604051808303816000875af19250505080156117eb57506040513d601f19601f820116820180604052508101906117e89190612ee8565b60015b61186d573d806000811461181b576040519150601f19603f3d011682016040523d82523d6000602084013e611820565b606091505b506000815103611865576040517f08c379a000000000000000000000000000000000000000000000000000000000815260040161185c90612e12565b60405180910390fd5b805181602001fd5b63150b7a0260e01b7bffffffffffffffffffffffffffffffffffffffffffffffffffffffff1916817bffffffffffffffffffffffffffffffffffffffffffffffffffffffff1916149150506118c2565b600190505b949350505050565b6060600060016118d984611bd8565b01905060008167ffffffffffffffff8111156118f8576118f761208b565b5b6040519080825280601f01601f19166020018201604052801561192a5781602001600182028036833780820191505090505b509050600082602001820190505b60011561198d578080600190039150507f3031323334353637383961626364656600000000000000000000000000000000600a86061a8153600a858161198157611980612f15565b5b04945060008503611938575b819350505050919050565b600073ffffffffffffffffffffffffffffffffffffffff168273ffffffffffffffffffffffffffffffffffffffff1603611a07576040517f08c379a00000000000000000000000000000000000000000000000000000000081526004016119fe90612f90565b60405180910390fd5b611a108161169b565b15611a50576040517f08c379a0000000000000000000000000000000000000000000000000000000008152600401611a4790612ffc565b60405180910390fd5b611a5e6000838360016116dc565b611a678161169b565b15611aa7576040517f08c379a0000000000000000000000000000000000000000000000000000000008152600401611a9e90612ffc565b60405180910390fd5b6001600360008473ffffffffffffffffffffffffffffffffffffffff1673ffffffffffffffffffffffffffffffffffffffff16815260200190815260200160002060008282540192505081905550816002600083815260200190815260200160002060006101000a81548173ffffffffffffffffffffffffffffffffffffffff021916908373ffffffffffffffffffffffffffffffffffffffff160217905550808273ffffffffffffffffffffffffffffffffffffffff16600073ffffffffffffffffffffffffffffffffffffffff167fddf252ad1be2c89b69c2b068fc378daa952ba7f163c4a11628f55a4df523b3ef60405160405180910390a4611bb16000838360016116e2565b5050565b6000808273ffffffffffffffffffffffffffffffffffffffff163b119050919050565b600080600090507a184f03e93ff9f4daa797ed6e38ed64bf6a1f0100000000000000008310611c36577a184f03e93ff9f4daa797ed6e38ed64bf6a1f0100000000000000008381611c2c57611c2b612f15565b5b0492506040810190505b6d04ee2d6d415b85acef81000000008310611c73576d04ee2d6d415b85acef81000000008381611c6957611c68612f15565b5b0492506020810190505b662386f26fc100008310611ca257662386f26fc100008381611c9857611c97612f15565b5b0492506010810190505b6305f5e1008310611ccb576305f5e1008381611cc157611cc0612f15565b5b0492506008810190505b6127108310611cf0576127108381611ce657611ce5612f15565b5b0492506004810190505b60648310611d135760648381611d0957611d08612f15565b5b0492506002810190505b600a8310611d22576001810190505b80915050919050565b6000604051905090565b600080fd5b600080fd5b60007fffffffff0000000000000000000000000000000000000000000000000000000082169050919050565b611d7481611d3f565b8114611d7f57600080fd5b50565b600081359050611d9181611d6b565b92915050565b600060208284031215611dad57611dac611d35565b5b6000611dbb84828501611d82565b91505092915050565b60008115159050919050565b611dd981611dc4565b82525050565b6000602082019050611df46000830184611dd0565b92915050565b600081519050919050565b600082825260208201905092915050565b60005b83811015611e34578082015181840152602081019050611e19565b60008484015250505050565b6000601f19601f8301169050919050565b6000611e5c82611dfa565b611e668185611e05565b9350611e76818560208601611e16565b611e7f81611e40565b840191505092915050565b60006020820190508181036000830152611ea48184611e51565b905092915050565b6000819050919050565b611ebf81611eac565b8114611eca57600080fd5b50565b600081359050611edc81611eb6565b92915050565b600060208284031215611ef857611ef7611d35565b5b6000611f0684828501611ecd565b91505092915050565b600073ffffffffffffffffffffffffffffffffffffffff82169050919050565b6000611f3a82611f0f565b9050919050565b611f4a81611f2f565b82525050565b6000602082019050611f656000830184611f41565b92915050565b611f7481611f2f565b8114611f7f57600080fd5b50565b600081359050611f9181611f6b565b92915050565b60008060408385031215611fae57611fad611d35565b5b6000611fbc85828601611f82565b9250506020611fcd85828601611ecd565b9150509250929050565b600080600060608486031215611ff057611fef611d35565b5b6000611ffe86828701611f82565b935050602061200f86828701611f82565b925050604061202086828701611ecd565b9150509250925092565b6000602082840312156120405761203f611d35565b5b600061204e84828501611f82565b91505092915050565b61206081611eac565b82525050565b600060208201905061207b6000830184612057565b92915050565b600080fd5b600080fd5b7f4e487b7100000000000000000000000000000000000000000000000000000000600052604160045260246000fd5b6120c382611e40565b810181811067ffffffffffffffff821117156120e2576120e161208b565b5b80604052505050565b60006120f5611d2b565b905061210182826120ba565b919050565b600067ffffffffffffffff8211156121215761212061208b565b5b61212a82611e40565b9050602081019050919050565b82818337600083830152505050565b600061215961215484612106565b6120eb565b90508281526020810184848401111561217557612174612086565b5b612180848285612137565b509392505050565b600082601f83011261219d5761219c612081565b5b81356121ad848260208601612146565b91505092915050565b6000602082840312156121cc576121cb611d35565b5b600082013567ffffffffffffffff8111156121ea576121e9611d3a565b5b6121f684828501612188565b91505092915050565b61220881611dc4565b811461221357600080fd5b50565b600081359050612225816121ff565b92915050565b6000806040838503121561224257612241611d35565b5b600061225085828601611f82565b925050602061226185828601612216565b9150509250929050565b600067ffffffffffffffff8211156122865761228561208b565b5b61228f82611e40565b9050602081019050919050565b60006122af6122aa8461226b565b6120eb565b9050828152602081018484840111156122cb576122ca612086565b5b6122d6848285612137565b509392505050565b600082601f8301126122f3576122f2612081565b5b813561230384826020860161229c565b91505092915050565b6000806000806080858703121561232657612325611d35565b5b600061233487828801611f82565b945050602061234587828801611f82565b935050604061235687828801611ecd565b925050606085013567ffffffffffffffff81111561237757612376611d3a565b5b612383878288016122de565b91505092959194509250565b600080604083850312156123a6576123a5611d35565b5b60006123b485828601611f82565b925050602083013567ffffffffffffffff8111156123d5576123d4611d3a565b5b6123e185828601612188565b9150509250929050565b6000806040838503121561240257612401611d35565b5b600061241085828601611f82565b925050602061242185828601611f82565b9150509250929050565b7f4e487b7100000000000000000000000000000000000000000000000000000000600052602260045260246000fd5b6000600282049050600182168061247257607f821691505b6020821081036124855761248461242b565b5b50919050565b7f4552433732313a20617070726f76616c20746f2063757272656e74206f776e6560008201527f7200000000000000000000000000000000000000000000000000000000000000602082015250565b60006124e7602183611e05565b91506124f28261248b565b604082019050919050565b60006020820190508181036000830152612516816124da565b9050919050565b7f4552433732313a20617070726f76652063616c6c6572206973206e6f7420746f60008201527f6b656e206f776e6572206f7220617070726f76656420666f7220616c6c000000602082015250565b6000612579603d83611e05565b91506125848261251d565b604082019050919050565b600060208201905081810360008301526125a88161256c565b9050919050565b7f4552433732313a2063616c6c6572206973206e6f7420746f6b656e206f776e6560008201527f72206f7220617070726f76656400000000000000000000000000000000000000602082015250565b600061260b602d83611e05565b9150612616826125af565b604082019050919050565b6000602082019050818103600083015261263a816125fe565b9050919050565b7f4552433732313a20696e76616c696420746f6b656e2049440000000000000000600082015250565b6000612677601883611e05565b915061268282612641565b602082019050919050565b600060208201905081810360008301526126a68161266a565b9050919050565b7f4552433732313a2061646472657373207a65726f206973206e6f74206120766160008201527f6c6964206f776e65720000000000000000000000000000000000000000000000602082015250565b6000612709602983611e05565b9150612714826126ad565b604082019050919050565b60006020820190508181036000830152612738816126fc565b9050919050565b7f4e487b7100000000000000000000000000000000000000000000000000000000600052601160045260246000fd5b600061277982611eac565b915061278483611eac565b925082820190508082111561279c5761279b61273f565b5b92915050565b600081905092915050565b60006127b882611dfa565b6127c281856127a2565b93506127d2818560208601611e16565b80840191505092915050565b60006127ea82856127ad565b91506127f682846127ad565b91508190509392505050565b7f4f776e61626c653a206e6577206f776e657220697320746865207a65726f206160008201527f6464726573730000000000000000000000000000000000000000000000000000602082015250565b600061285e602683611e05565b915061286982612802565b604082019050919050565b6000602082019050818103600083015261288d81612851565b9050919050565b7f4552433732313a207472616e736665722066726f6d20696e636f72726563742060008201527f6f776e6572000000000000000000000000000000000000000000000000000000602082015250565b60006128f0602583611e05565b91506128fb82612894565b604082019050919050565b6000602082019050818103600083015261291f816128e3565b9050919050565b7f4552433732313a207472616e7366657220746f20746865207a65726f2061646460008201527f7265737300000000000000000000000000000000000000000000000000000000602082015250565b6000612982602483611e05565b915061298d82612926565b604082019050919050565b600060208201905081810360008301526129b181612975565b9050919050565b7f4f776e61626c653a2063616c6c6572206973206e6f7420746865206f776e6572600082015250565b60006129ee602083611e05565b91506129f9826129b8565b602082019050919050565b60006020820190508181036000830152612a1d816129e1565b9050919050565b7f45524337323155524953746f726167653a2055524920736574206f66206e6f6e60008201527f6578697374656e7420746f6b656e000000000000000000000000000000000000602082015250565b6000612a80602e83611e05565b9150612a8b82612a24565b604082019050919050565b60006020820190508181036000830152612aaf81612a73565b9050919050565b60008190508160005260206000209050919050565b60006020601f8301049050919050565b600082821b905092915050565b600060088302612b187fffffffffffffffffffffffffffffffffffffffffffffffffffffffffffffffff82612adb565b612b228683612adb565b95508019841693508086168417925050509392505050565b6000819050919050565b6000612b5f612b5a612b5584611eac565b612b3a565b611eac565b9050919050565b6000819050919050565b612b7983612b44565b612b8d612b8582612b66565b848454612ae8565b825550505050565b600090565b612ba2612b95565b612bad818484612b70565b505050565b5b81811015612bd157612bc6600082612b9a565b600181019050612bb3565b5050565b601f821115612c1657612be781612ab6565b612bf084612acb565b81016020851015612bff578190505b612c13612c0b85612acb565b830182612bb2565b50505b505050565b600082821c905092915050565b6000612c3960001984600802612c1b565b1980831691505092915050565b6000612c528383612c28565b9150826002028217905092915050565b612c6b82611dfa565b67ffffffffffffffff811115612c8457612c8361208b565b5b612c8e825461245a565b612c99828285612bd5565b600060209050601f831160018114612ccc5760008415612cba578287015190505b612cc48582612c46565b865550612d2c565b601f198416612cda86612ab6565b60005b82811015612d0257848901518255600182019150602085019450602081019050612cdd565b86831015612d1f5784890151612d1b601f891682612c28565b8355505b6001600288020188555050505b505050505050565b7f4552433732313a20617070726f766520746f2063616c6c657200000000000000600082015250565b6000612d6a601983611e05565b9150612d7582612d34565b602082019050919050565b60006020820190508181036000830152612d9981612d5d565b9050919050565b7f4552433732313a207472616e7366657220746f206e6f6e20455243373231526560008201527f63656976657220696d706c656d656e7465720000000000000000000000000000602082015250565b6000612dfc603283611e05565b9150612e0782612da0565b604082019050919050565b60006020820190508181036000830152612e2b81612def565b9050919050565b600081519050919050565b600082825260208201905092915050565b6000612e5982612e32565b612e638185612e3d565b9350612e73818560208601611e16565b612e7c81611e40565b840191505092915050565b6000608082019050612e9c6000830187611f41565b612ea96020830186611f41565b612eb66040830185612057565b8181036060830152612ec88184612e4e565b905095945050505050565b600081519050612ee281611d6b565b92915050565b600060208284031215612efe57612efd611d35565b5b6000612f0c84828501612ed3565b91505092915050565b7f4e487b7100000000000000000000000000000000000000000000000000000000600052601260045260246000fd5b7f4552433732313a206d696e7420746f20746865207a65726f2061646472657373600082015250565b6000612f7a602083611e05565b9150612f8582612f44565b602082019050919050565b60006020820190508181036000830152612fa981612f6d565b9050919050565b7f4552433732313a20746f6b656e20616c7265616479206d696e74656400000000600082015250565b6000612fe6601c83611e05565b9150612ff182612fb0565b602082019050919050565b6000602082019050818103600083015261301581612fd9565b905091905056fea2646970667358221220a9cc683b7bdd733d22ff2095364b2bc9314dd55d9a903c8a5a48f6df0e67258364736f6c634300081c0033",
  "linkReferences": {},
  "deployedLinkReferences": {}
}